{
  "_format": "hh-sol-artifact-1",
  "contractName": "Stamper",
  "sourceName": "contracts/Stamper.sol",
  "abi": [
    {
      "inputs": [
        {
          "internalType": "contract IEAS",
          "name": "eas",
          "type": "address"
        },
        {
          "internalType": "string",
          "name": "name",
          "type": "string"
        },
        {
          "internalType": "string",
          "name": "version",
          "type": "string"
        },
        {
          "internalType": "bytes32",
          "name": "addSchemaId",
          "type": "bytes32"
        },
        {
          "internalType": "bytes32",
          "name": "stampSchemaId",
          "type": "bytes32"
        }
      ],
      "stateMutability": "nonpayable",
      "type": "constructor"
    },
    {
      "inputs": [],
      "name": "InvalidShortString",
      "type": "error"
    },
    {
      "inputs": [],
      "name": "InvalidSignature",
      "type": "error"
    },
    {
      "inputs": [
        {
          "internalType": "string",
          "name": "str",
          "type": "string"
        }
      ],
      "name": "StringTooLong",
      "type": "error"
    },
    {
      "anonymous": false,
      "inputs": [],
      "name": "EIP712DomainChanged",
      "type": "event"
    },
    {
      "anonymous": false,
      "inputs": [
        {
          "indexed": true,
          "internalType": "address",
          "name": "previousOwner",
          "type": "address"
        },
        {
          "indexed": true,
          "internalType": "address",
          "name": "newOwner",
          "type": "address"
        }
      ],
      "name": "OwnershipTransferred",
      "type": "event"
    },
    {
      "inputs": [
        {
          "components": [
            {
              "internalType": "bytes32",
              "name": "schema",
              "type": "bytes32"
            },
            {
              "components": [
                {
                  "internalType": "address",
                  "name": "recipient",
                  "type": "address"
                },
                {
                  "internalType": "uint64",
                  "name": "expirationTime",
                  "type": "uint64"
                },
                {
                  "internalType": "bool",
                  "name": "revocable",
                  "type": "bool"
                },
                {
                  "internalType": "bytes32",
                  "name": "refUID",
                  "type": "bytes32"
                },
                {
                  "internalType": "bytes",
                  "name": "data",
                  "type": "bytes"
                },
                {
                  "internalType": "uint256",
                  "name": "value",
                  "type": "uint256"
                }
              ],
              "internalType": "struct AttestationRequestData",
              "name": "data",
              "type": "tuple"
            }
          ],
          "internalType": "struct AttestationRequest",
          "name": "request",
          "type": "tuple"
        }
      ],
      "name": "addStamp",
      "outputs": [
        {
          "internalType": "bytes32",
          "name": "",
          "type": "bytes32"
        }
      ],
      "stateMutability": "payable",
      "type": "function"
    },
    {
      "inputs": [],
      "name": "eip712Domain",
      "outputs": [
        {
          "internalType": "bytes1",
          "name": "fields",
          "type": "bytes1"
        },
        {
          "internalType": "string",
          "name": "name",
          "type": "string"
        },
        {
          "internalType": "string",
          "name": "version",
          "type": "string"
        },
        {
          "internalType": "uint256",
          "name": "chainId",
          "type": "uint256"
        },
        {
          "internalType": "address",
          "name": "verifyingContract",
          "type": "address"
        },
        {
          "internalType": "bytes32",
          "name": "salt",
          "type": "bytes32"
        },
        {
          "internalType": "uint256[]",
          "name": "extensions",
          "type": "uint256[]"
        }
      ],
      "stateMutability": "view",
      "type": "function"
    },
    {
      "inputs": [],
      "name": "owner",
      "outputs": [
        {
          "internalType": "address",
          "name": "",
          "type": "address"
        }
      ],
      "stateMutability": "view",
      "type": "function"
    },
    {
      "inputs": [],
      "name": "renounceOwnership",
      "outputs": [],
      "stateMutability": "nonpayable",
      "type": "function"
    },
    {
      "inputs": [
        {
          "components": [
            {
              "internalType": "bytes32",
              "name": "schema",
              "type": "bytes32"
            },
            {
              "components": [
                {
                  "internalType": "address",
                  "name": "recipient",
                  "type": "address"
                },
                {
                  "internalType": "uint64",
                  "name": "expirationTime",
                  "type": "uint64"
                },
                {
                  "internalType": "bool",
                  "name": "revocable",
                  "type": "bool"
                },
                {
                  "internalType": "bytes32",
                  "name": "refUID",
                  "type": "bytes32"
                },
                {
                  "internalType": "bytes",
                  "name": "data",
                  "type": "bytes"
                },
                {
                  "internalType": "uint256",
                  "name": "value",
                  "type": "uint256"
                }
              ],
              "internalType": "struct AttestationRequestData",
              "name": "data",
              "type": "tuple"
            },
            {
              "components": [
                {
                  "internalType": "uint8",
                  "name": "v",
                  "type": "uint8"
                },
                {
                  "internalType": "bytes32",
                  "name": "r",
                  "type": "bytes32"
                },
                {
                  "internalType": "bytes32",
                  "name": "s",
                  "type": "bytes32"
                }
              ],
              "internalType": "struct EIP712Signature",
              "name": "signature",
              "type": "tuple"
            },
            {
              "internalType": "address",
              "name": "attester",
              "type": "address"
            }
          ],
          "internalType": "struct DelegatedAttestationRequest",
          "name": "delegatedRequest",
          "type": "tuple"
        }
      ],
      "name": "stamp",
      "outputs": [
        {
          "internalType": "bytes32",
          "name": "",
          "type": "bytes32"
        }
      ],
      "stateMutability": "payable",
      "type": "function"
    },
    {
      "inputs": [
        {
          "internalType": "bytes",
          "name": "request",
          "type": "bytes"
        }
      ],
      "name": "tester",
      "outputs": [
        {
          "internalType": "bytes32",
          "name": "",
          "type": "bytes32"
        }
      ],
      "stateMutability": "view",
      "type": "function"
    },
    {
      "inputs": [
        {
          "internalType": "address",
          "name": "newOwner",
          "type": "address"
        }
      ],
      "name": "transferOwnership",
      "outputs": [],
      "stateMutability": "nonpayable",
      "type": "function"
    }
  ],
  "bytecode": "0x6101c06040523480156200001257600080fd5b5060405162002d8238038062002d8283398181016040528101906200003891906200059f565b838381816200005c620000506200016060201b60201c565b6200016860201b60201c565b620000726001836200022c60201b90919060201c565b6101208181525050620000906002826200022c60201b90919060201c565b6101408181525050818051906020012060e08181525050808051906020012061010081815250504660a08181525050620000cf6200028460201b60201c565b608081815250503073ffffffffffffffffffffffffffffffffffffffff1660c08173ffffffffffffffffffffffffffffffffffffffff1681525050505050508473ffffffffffffffffffffffffffffffffffffffff166101608173ffffffffffffffffffffffffffffffffffffffff1681525050816101808181525050806101a08181525050505050505062000b3f565b600033905090565b60008060009054906101000a900473ffffffffffffffffffffffffffffffffffffffff169050816000806101000a81548173ffffffffffffffffffffffffffffffffffffffff021916908373ffffffffffffffffffffffffffffffffffffffff1602179055508173ffffffffffffffffffffffffffffffffffffffff168173ffffffffffffffffffffffffffffffffffffffff167f8be0079c531659141344cd1fd0a4f28419497f9722a3daafe3b4186f6b6457e060405160405180910390a35050565b600060208351101562000252576200024a83620002e160201b60201c565b90506200027e565b8262000264836200034e60201b60201c565b6000019081620002759190620008b0565b5060ff60001b90505b92915050565b60007f8b73c3c69bb8fe3d512ecc4cf759cc79239f7b179b0ffacaa9a75d522b39400f60e051610100514630604051602001620002c6959493929190620009ca565b60405160208183030381529060405280519060200120905090565b600080829050601f815111156200033157826040517f305a27a900000000000000000000000000000000000000000000000000000000815260040162000328919062000a79565b60405180910390fd5b8051816200033f9062000acf565b60001c1760001b915050919050565b6000819050919050565b6000604051905090565b600080fd5b600080fd5b600073ffffffffffffffffffffffffffffffffffffffff82169050919050565b600062000399826200036c565b9050919050565b6000620003ad826200038c565b9050919050565b620003bf81620003a0565b8114620003cb57600080fd5b50565b600081519050620003df81620003b4565b92915050565b600080fd5b600080fd5b6000601f19601f8301169050919050565b7f4e487b7100000000000000000000000000000000000000000000000000000000600052604160045260246000fd5b6200043a82620003ef565b810181811067ffffffffffffffff821117156200045c576200045b62000400565b5b80604052505050565b60006200047162000358565b90506200047f82826200042f565b919050565b600067ffffffffffffffff821115620004a257620004a162000400565b5b620004ad82620003ef565b9050602081019050919050565b60005b83811015620004da578082015181840152602081019050620004bd565b60008484015250505050565b6000620004fd620004f78462000484565b62000465565b9050828152602081018484840111156200051c576200051b620003ea565b5b62000529848285620004ba565b509392505050565b600082601f830112620005495762000548620003e5565b5b81516200055b848260208601620004e6565b91505092915050565b6000819050919050565b620005798162000564565b81146200058557600080fd5b50565b60008151905062000599816200056e565b92915050565b600080600080600060a08688031215620005be57620005bd62000362565b5b6000620005ce88828901620003ce565b955050602086015167ffffffffffffffff811115620005f257620005f162000367565b5b620006008882890162000531565b945050604086015167ffffffffffffffff81111562000624576200062362000367565b5b620006328882890162000531565b9350506060620006458882890162000588565b9250506080620006588882890162000588565b9150509295509295909350565b600081519050919050565b7f4e487b7100000000000000000000000000000000000000000000000000000000600052602260045260246000fd5b60006002820490506001821680620006b857607f821691505b602082108103620006ce57620006cd62000670565b5b50919050565b60008190508160005260206000209050919050565b60006020601f8301049050919050565b600082821b905092915050565b600060088302620007387fffffffffffffffffffffffffffffffffffffffffffffffffffffffffffffffff82620006f9565b620007448683620006f9565b95508019841693508086168417925050509392505050565b6000819050919050565b6000819050919050565b6000620007916200078b62000785846200075c565b62000766565b6200075c565b9050919050565b6000819050919050565b620007ad8362000770565b620007c5620007bc8262000798565b84845462000706565b825550505050565b600090565b620007dc620007cd565b620007e9818484620007a2565b505050565b5b81811015620008115762000805600082620007d2565b600181019050620007ef565b5050565b601f82111562000860576200082a81620006d4565b6200083584620006e9565b8101602085101562000845578190505b6200085d6200085485620006e9565b830182620007ee565b50505b505050565b600082821c905092915050565b6000620008856000198460080262000865565b1980831691505092915050565b6000620008a0838362000872565b9150826002028217905092915050565b620008bb8262000665565b67ffffffffffffffff811115620008d757620008d662000400565b5b620008e382546200069f565b620008f082828562000815565b600060209050601f83116001811462000928576000841562000913578287015190505b6200091f858262000892565b8655506200098f565b601f1984166200093886620006d4565b60005b8281101562000962578489015182556001820191506020850194506020810190506200093b565b868310156200098257848901516200097e601f89168262000872565b8355505b6001600288020188555050505b505050505050565b620009a28162000564565b82525050565b620009b3816200075c565b82525050565b620009c4816200038c565b82525050565b600060a082019050620009e1600083018862000997565b620009f0602083018762000997565b620009ff604083018662000997565b62000a0e6060830185620009a8565b62000a1d6080830184620009b9565b9695505050505050565b600082825260208201905092915050565b600062000a458262000665565b62000a51818562000a27565b935062000a63818560208601620004ba565b62000a6e81620003ef565b840191505092915050565b6000602082019050818103600083015262000a95818462000a38565b905092915050565b600081519050919050565b6000819050602082019050919050565b600062000ac6825162000564565b80915050919050565b600062000adc8262000a9d565b8262000ae88462000aa8565b905062000af58162000ab8565b9250602082101562000b385762000b337fffffffffffffffffffffffffffffffffffffffffffffffffffffffffffffffff83602003600802620006f9565b831692505b5050919050565b60805160a05160c05160e05161010051610120516101405161016051610180516101a0516121b962000bc9600039600081816102c5015261040b015260006101ba01526000818161022001526103c40152600061050c015260006104d801526000610e2a01526000610e0901526000610a5801526000610aae01526000610ad701526121b96000f3fe6080604052600436106100705760003560e01c806384b0196e1161004e57806384b0196e146100ec57806385ea49561461011d5780638da5cb5b1461015a578063f2fde38b1461018557610070565b80632739e209146100755780635c4c6e6f146100a5578063715018a6146100d5575b600080fd5b61008f600480360381019061008a9190610eb2565b6101ae565b60405161009c9190610f14565b60405180910390f35b6100bf60048036038101906100ba9190610f4e565b6102c1565b6040516100cc9190610f14565b60405180910390f35b3480156100e157600080fd5b506100ea6104b1565b005b3480156100f857600080fd5b506101016104c5565b604051610114979695949392919061117a565b60405180910390f35b34801561012957600080fd5b50610144600480360381019061013f9190611263565b6105c7565b6040516101519190610f14565b60405180910390f35b34801561016657600080fd5b5061016f6105e9565b60405161017c91906112b0565b60405180910390f35b34801561019157600080fd5b506101ac60048036038101906101a791906112f7565b610612565b005b60006101b8610695565b7f000000000000000000000000000000000000000000000000000000000000000082600001351461021e576040517f08c379a000000000000000000000000000000000000000000000000000000000815260040161021590611396565b60405180910390fd5b7f000000000000000000000000000000000000000000000000000000000000000073ffffffffffffffffffffffffffffffffffffffff1663f17325e7836040518263ffffffff1660e01b81526004016102779190611724565b6020604051808303816000875af1158015610296573d6000803e3d6000fd5b505050506040513d601f19601f820116820180604052508101906102ba919061175b565b9050919050565b60007f0000000000000000000000000000000000000000000000000000000000000000826000013514610329576040517f08c379a0000000000000000000000000000000000000000000000000000000008152600401610320906117fa565b60405180910390fd5b6103316105e9565b73ffffffffffffffffffffffffffffffffffffffff168260a001602081019061035a91906112f7565b73ffffffffffffffffffffffffffffffffffffffff16146103b0576040517f08c379a00000000000000000000000000000000000000000000000000000000081526004016103a790611866565b60405180910390fd5b6103c2826103bd90611b9e565b610713565b7f000000000000000000000000000000000000000000000000000000000000000073ffffffffffffffffffffffffffffffffffffffff1663f17325e760405180604001604052807f0000000000000000000000000000000000000000000000000000000000000000815260200185806020019061043f9190611bb6565b61044890611bde565b8152506040518263ffffffff1660e01b81526004016104679190611cfb565b6020604051808303816000875af1158015610486573d6000803e3d6000fd5b505050506040513d601f19601f820116820180604052508101906104aa919061175b565b9050919050565b6104b9610695565b6104c3600061081f565b565b60006060806000806000606061050560017f00000000000000000000000000000000000000000000000000000000000000006108e390919063ffffffff16565b61053960027f00000000000000000000000000000000000000000000000000000000000000006108e390919063ffffffff16565b46306000801b600067ffffffffffffffff81111561055a5761055961188b565b5b6040519080825280602002602001820160405280156105885781602001602082028036833780820191505090505b507f0f00000000000000000000000000000000000000000000000000000000000000959493929190965096509650965096509650965090919293949596565b600082826040516105d9929190611d4d565b6040518091039020905092915050565b60008060009054906101000a900473ffffffffffffffffffffffffffffffffffffffff16905090565b61061a610695565b600073ffffffffffffffffffffffffffffffffffffffff168173ffffffffffffffffffffffffffffffffffffffff1603610689576040517f08c379a000000000000000000000000000000000000000000000000000000000815260040161068090611dd8565b60405180910390fd5b6106928161081f565b50565b61069d610993565b73ffffffffffffffffffffffffffffffffffffffff166106bb6105e9565b73ffffffffffffffffffffffffffffffffffffffff1614610711576040517f08c379a000000000000000000000000000000000000000000000000000000000815260040161070890611e44565b60405180910390fd5b565b60008160200151905060008260400151905060006107977fb630730113c4abb103d32d7fa563c47f4c5d3c4d0e661b6987ff523bc5fb43a960001b8560000151856000015186602001518760400151886060015160405160200161077c96959493929190611e82565b6040516020818303038152906040528051906020012061099b565b9050836060015173ffffffffffffffffffffffffffffffffffffffff166107cc828460000151856020015186604001516109b5565b73ffffffffffffffffffffffffffffffffffffffff1614610819576040517f8baa579f00000000000000000000000000000000000000000000000000000000815260040160405180910390fd5b50505050565b60008060009054906101000a900473ffffffffffffffffffffffffffffffffffffffff169050816000806101000a81548173ffffffffffffffffffffffffffffffffffffffff021916908373ffffffffffffffffffffffffffffffffffffffff1602179055508173ffffffffffffffffffffffffffffffffffffffff168173ffffffffffffffffffffffffffffffffffffffff167f8be0079c531659141344cd1fd0a4f28419497f9722a3daafe3b4186f6b6457e060405160405180910390a35050565b606060ff60001b8314610900576108f9836109e0565b905061098d565b81805461090c90611f12565b80601f016020809104026020016040519081016040528092919081815260200182805461093890611f12565b80156109855780601f1061095a57610100808354040283529160200191610985565b820191906000526020600020905b81548152906001019060200180831161096857829003601f168201915b505050505090505b92915050565b600033905090565b60006109ae6109a8610a54565b83610b0b565b9050919050565b60008060006109c687878787610b4c565b915091506109d381610c2e565b8192505050949350505050565b606060006109ed83610d94565b90506000602067ffffffffffffffff811115610a0c57610a0b61188b565b5b6040519080825280601f01601f191660200182016040528015610a3e5781602001600182028036833780820191505090505b5090508181528360208201528092505050919050565b60007f000000000000000000000000000000000000000000000000000000000000000073ffffffffffffffffffffffffffffffffffffffff163073ffffffffffffffffffffffffffffffffffffffff16148015610ad057507f000000000000000000000000000000000000000000000000000000000000000046145b15610afd577f00000000000000000000000000000000000000000000000000000000000000009050610b08565b610b05610de4565b90505b90565b60006040517f190100000000000000000000000000000000000000000000000000000000000081528360028201528260228201526042812091505092915050565b6000807f7fffffffffffffffffffffffffffffff5d576e7357a4501ddfe92f46681b20a08360001c1115610b87576000600391509150610c25565b600060018787878760405160008152602001604052604051610bac9493929190611f52565b6020604051602081039080840390855afa158015610bce573d6000803e3d6000fd5b505050602060405103519050600073ffffffffffffffffffffffffffffffffffffffff168173ffffffffffffffffffffffffffffffffffffffff1603610c1c57600060019250925050610c25565b80600092509250505b94509492505050565b60006004811115610c4257610c41611f97565b5b816004811115610c5557610c54611f97565b5b0315610d915760016004811115610c6f57610c6e611f97565b5b816004811115610c8257610c81611f97565b5b03610cc2576040517f08c379a0000000000000000000000000000000000000000000000000000000008152600401610cb990612012565b60405180910390fd5b60026004811115610cd657610cd5611f97565b5b816004811115610ce957610ce8611f97565b5b03610d29576040517f08c379a0000000000000000000000000000000000000000000000000000000008152600401610d209061207e565b60405180910390fd5b60036004811115610d3d57610d3c611f97565b5b816004811115610d5057610d4f611f97565b5b03610d90576040517f08c379a0000000000000000000000000000000000000000000000000000000008152600401610d8790612110565b60405180910390fd5b5b50565b60008060ff8360001c169050601f811115610ddb576040517fb3512b0c00000000000000000000000000000000000000000000000000000000815260040160405180910390fd5b80915050919050565b60007f8b73c3c69bb8fe3d512ecc4cf759cc79239f7b179b0ffacaa9a75d522b39400f7f00000000000000000000000000000000000000000000000000000000000000007f00000000000000000000000000000000000000000000000000000000000000004630604051602001610e5f959493929190612130565b60405160208183030381529060405280519060200120905090565b6000604051905090565b600080fd5b600080fd5b600080fd5b600060408284031215610ea957610ea8610e8e565b5b81905092915050565b600060208284031215610ec857610ec7610e84565b5b600082013567ffffffffffffffff811115610ee657610ee5610e89565b5b610ef284828501610e93565b91505092915050565b6000819050919050565b610f0e81610efb565b82525050565b6000602082019050610f296000830184610f05565b92915050565b600060c08284031215610f4557610f44610e8e565b5b81905092915050565b600060208284031215610f6457610f63610e84565b5b600082013567ffffffffffffffff811115610f8257610f81610e89565b5b610f8e84828501610f2f565b91505092915050565b60007fff0000000000000000000000000000000000000000000000000000000000000082169050919050565b610fcc81610f97565b82525050565b600081519050919050565b600082825260208201905092915050565b60005b8381101561100c578082015181840152602081019050610ff1565b60008484015250505050565b6000601f19601f8301169050919050565b600061103482610fd2565b61103e8185610fdd565b935061104e818560208601610fee565b61105781611018565b840191505092915050565b6000819050919050565b61107581611062565b82525050565b600073ffffffffffffffffffffffffffffffffffffffff82169050919050565b60006110a68261107b565b9050919050565b6110b68161109b565b82525050565b600081519050919050565b600082825260208201905092915050565b6000819050602082019050919050565b6110f181611062565b82525050565b600061110383836110e8565b60208301905092915050565b6000602082019050919050565b6000611127826110bc565b61113181856110c7565b935061113c836110d8565b8060005b8381101561116d57815161115488826110f7565b975061115f8361110f565b925050600181019050611140565b5085935050505092915050565b600060e08201905061118f600083018a610fc3565b81810360208301526111a18189611029565b905081810360408301526111b58188611029565b90506111c4606083018761106c565b6111d160808301866110ad565b6111de60a0830185610f05565b81810360c08301526111f0818461111c565b905098975050505050505050565b600080fd5b600080fd5b600080fd5b60008083601f840112611223576112226111fe565b5b8235905067ffffffffffffffff8111156112405761123f611203565b5b60208301915083600182028301111561125c5761125b611208565b5b9250929050565b6000806020838503121561127a57611279610e84565b5b600083013567ffffffffffffffff81111561129857611297610e89565b5b6112a48582860161120d565b92509250509250929050565b60006020820190506112c560008301846110ad565b92915050565b6112d48161109b565b81146112df57600080fd5b50565b6000813590506112f1816112cb565b92915050565b60006020828403121561130d5761130c610e84565b5b600061131b848285016112e2565b91505092915050565b7f4974206973206e6f74207468652065787065637465642061646420736368656d60008201527f6121000000000000000000000000000000000000000000000000000000000000602082015250565b6000611380602283610fdd565b915061138b82611324565b604082019050919050565b600060208201905081810360008301526113af81611373565b9050919050565b6113bf81610efb565b81146113ca57600080fd5b50565b6000813590506113dc816113b6565b92915050565b60006113f160208401846113cd565b905092915050565b61140281610efb565b82525050565b600080fd5b60008235600160c00383360303811261142957611428611408565b5b82810191505092915050565b600061144460208401846112e2565b905092915050565b6114558161109b565b82525050565b600067ffffffffffffffff82169050919050565b6114788161145b565b811461148357600080fd5b50565b6000813590506114958161146f565b92915050565b60006114aa6020840184611486565b905092915050565b6114bb8161145b565b82525050565b60008115159050919050565b6114d6816114c1565b81146114e157600080fd5b50565b6000813590506114f3816114cd565b92915050565b600061150860208401846114e4565b905092915050565b611519816114c1565b82525050565b600080fd5b600080fd5b6000808335600160200384360303811261154657611545611408565b5b83810192508235915060208301925067ffffffffffffffff82111561156e5761156d61151f565b5b60018202360383131561158457611583611524565b5b509250929050565b600082825260208201905092915050565b82818337600083830152505050565b60006115b8838561158c565b93506115c583858461159d565b6115ce83611018565b840190509392505050565b6115e281611062565b81146115ed57600080fd5b50565b6000813590506115ff816115d9565b92915050565b600061161460208401846115f0565b905092915050565b600060c0830161162f6000840184611435565b61163c600086018261144c565b5061164a602084018461149b565b61165760208601826114b2565b5061166560408401846114f9565b6116726040860182611510565b5061168060608401846113e2565b61168d60608601826113f9565b5061169b6080840184611529565b85830360808701526116ae8382846115ac565b925050506116bf60a0840184611605565b6116cc60a08601826110e8565b508091505092915050565b6000604083016116ea60008401846113e2565b6116f760008601826113f9565b50611705602084018461140d565b8482036020860152611717828261161c565b9150508091505092915050565b6000602082019050818103600083015261173e81846116d7565b905092915050565b600081519050611755816113b6565b92915050565b60006020828403121561177157611770610e84565b5b600061177f84828501611746565b91505092915050565b7f4974206973206e6f7420746865206578706563746564207374616d702073636860008201527f656d612100000000000000000000000000000000000000000000000000000000602082015250565b60006117e4602483610fdd565b91506117ef82611788565b604082019050919050565b60006020820190508181036000830152611813816117d7565b9050919050565b7f546865206174746573746572206973206e6f7420746865206f776e6572210000600082015250565b6000611850601e83610fdd565b915061185b8261181a565b602082019050919050565b6000602082019050818103600083015261187f81611843565b9050919050565b600080fd5b7f4e487b7100000000000000000000000000000000000000000000000000000000600052604160045260246000fd5b6118c382611018565b810181811067ffffffffffffffff821117156118e2576118e161188b565b5b80604052505050565b60006118f5610e7a565b905061190182826118ba565b919050565b600080fd5b600080fd5b600067ffffffffffffffff82111561192b5761192a61188b565b5b61193482611018565b9050602081019050919050565b600061195461194f84611910565b6118eb565b9050828152602081018484840111156119705761196f61190b565b5b61197b84828561159d565b509392505050565b600082601f830112611998576119976111fe565b5b81356119a8848260208601611941565b91505092915050565b600060c082840312156119c7576119c6611886565b5b6119d160c06118eb565b905060006119e1848285016112e2565b60008301525060206119f584828501611486565b6020830152506040611a09848285016114e4565b6040830152506060611a1d848285016113cd565b606083015250608082013567ffffffffffffffff811115611a4157611a40611906565b5b611a4d84828501611983565b60808301525060a0611a61848285016115f0565b60a08301525092915050565b600060ff82169050919050565b611a8381611a6d565b8114611a8e57600080fd5b50565b600081359050611aa081611a7a565b92915050565b600060608284031215611abc57611abb611886565b5b611ac660606118eb565b90506000611ad684828501611a91565b6000830152506020611aea848285016113cd565b6020830152506040611afe848285016113cd565b60408301525092915050565b600060c08284031215611b2057611b1f611886565b5b611b2a60806118eb565b90506000611b3a848285016113cd565b600083015250602082013567ffffffffffffffff811115611b5e57611b5d611906565b5b611b6a848285016119b1565b6020830152506040611b7e84828501611aa6565b60408301525060a0611b92848285016112e2565b60608301525092915050565b6000611baa3683611b0a565b9050919050565b600080fd5b60008235600160c003833603038112611bd257611bd1611bb1565b5b80830191505092915050565b6000611bea36836119b1565b9050919050565b600081519050919050565b6000611c0782611bf1565b611c11818561158c565b9350611c21818560208601610fee565b611c2a81611018565b840191505092915050565b600060c083016000830151611c4d600086018261144c565b506020830151611c6060208601826114b2565b506040830151611c736040860182611510565b506060830151611c8660608601826113f9565b5060808301518482036080860152611c9e8282611bfc565b91505060a0830151611cb360a08601826110e8565b508091505092915050565b6000604083016000830151611cd660008601826113f9565b5060208301518482036020860152611cee8282611c35565b9150508091505092915050565b60006020820190508181036000830152611d158184611cbe565b905092915050565b600081905092915050565b6000611d348385611d1d565b9350611d4183858461159d565b82840190509392505050565b6000611d5a828486611d28565b91508190509392505050565b7f4f776e61626c653a206e6577206f776e657220697320746865207a65726f206160008201527f6464726573730000000000000000000000000000000000000000000000000000602082015250565b6000611dc2602683610fdd565b9150611dcd82611d66565b604082019050919050565b60006020820190508181036000830152611df181611db5565b9050919050565b7f4f776e61626c653a2063616c6c6572206973206e6f7420746865206f776e6572600082015250565b6000611e2e602083610fdd565b9150611e3982611df8565b602082019050919050565b60006020820190508181036000830152611e5d81611e21565b9050919050565b611e6d8161145b565b82525050565b611e7c816114c1565b82525050565b600060c082019050611e976000830189610f05565b611ea46020830188610f05565b611eb160408301876110ad565b611ebe6060830186611e64565b611ecb6080830185611e73565b611ed860a0830184610f05565b979650505050505050565b7f4e487b7100000000000000000000000000000000000000000000000000000000600052602260045260246000fd5b60006002820490506001821680611f2a57607f821691505b602082108103611f3d57611f3c611ee3565b5b50919050565b611f4c81611a6d565b82525050565b6000608082019050611f676000830187610f05565b611f746020830186611f43565b611f816040830185610f05565b611f8e6060830184610f05565b95945050505050565b7f4e487b7100000000000000000000000000000000000000000000000000000000600052602160045260246000fd5b7f45434453413a20696e76616c6964207369676e61747572650000000000000000600082015250565b6000611ffc601883610fdd565b915061200782611fc6565b602082019050919050565b6000602082019050818103600083015261202b81611fef565b9050919050565b7f45434453413a20696e76616c6964207369676e6174757265206c656e67746800600082015250565b6000612068601f83610fdd565b915061207382612032565b602082019050919050565b600060208201905081810360008301526120978161205b565b9050919050565b7f45434453413a20696e76616c6964207369676e6174757265202773272076616c60008201527f7565000000000000000000000000000000000000000000000000000000000000602082015250565b60006120fa602283610fdd565b91506121058261209e565b604082019050919050565b60006020820190508181036000830152612129816120ed565b9050919050565b600060a0820190506121456000830188610f05565b6121526020830187610f05565b61215f6040830186610f05565b61216c606083018561106c565b61217960808301846110ad565b969550505050505056fea2646970667358221220a1215b1e694b4c7e0e1f563a9f98871f487a6a6c943125f5b488b9e91dadeca964736f6c63430008130033",
  "linkReferences": {},
  "deployedLinkReferences": {}
}