{
  "_format": "hh-sol-artifact-1",
  "contractName": "Stamper",
  "sourceName": "contracts/Stamper.sol",
  "abi": [
    {
      "inputs": [
        {
          "internalType": "contract IEAS",
          "name": "eas",
          "type": "address"
        },
        {
          "internalType": "string",
          "name": "name",
          "type": "string"
        },
        {
          "internalType": "string",
          "name": "version",
          "type": "string"
        },
        {
          "internalType": "bytes32",
          "name": "addSchemaId",
          "type": "bytes32"
        },
        {
          "internalType": "bytes32",
          "name": "stampSchemaId",
          "type": "bytes32"
        }
      ],
      "stateMutability": "nonpayable",
      "type": "constructor"
    },
    {
      "inputs": [],
      "name": "InvalidShortString",
      "type": "error"
    },
    {
      "inputs": [],
      "name": "InvalidSignature",
      "type": "error"
    },
    {
      "inputs": [
        {
          "internalType": "string",
          "name": "str",
          "type": "string"
        }
      ],
      "name": "StringTooLong",
      "type": "error"
    },
    {
      "anonymous": false,
      "inputs": [],
      "name": "EIP712DomainChanged",
      "type": "event"
    },
    {
      "anonymous": false,
      "inputs": [
        {
          "indexed": true,
          "internalType": "address",
          "name": "previousOwner",
          "type": "address"
        },
        {
          "indexed": true,
          "internalType": "address",
          "name": "newOwner",
          "type": "address"
        }
      ],
      "name": "OwnershipTransferred",
      "type": "event"
    },
    {
      "inputs": [
        {
          "components": [
            {
              "internalType": "bytes32",
              "name": "schema",
              "type": "bytes32"
            },
            {
              "components": [
                {
                  "internalType": "address",
                  "name": "recipient",
                  "type": "address"
                },
                {
                  "internalType": "uint64",
                  "name": "expirationTime",
                  "type": "uint64"
                },
                {
                  "internalType": "bool",
                  "name": "revocable",
                  "type": "bool"
                },
                {
                  "internalType": "bytes32",
                  "name": "refUID",
                  "type": "bytes32"
                },
                {
                  "internalType": "bytes",
                  "name": "data",
                  "type": "bytes"
                },
                {
                  "internalType": "uint256",
                  "name": "value",
                  "type": "uint256"
                }
              ],
              "internalType": "struct AttestationRequestData",
              "name": "data",
              "type": "tuple"
            }
          ],
          "internalType": "struct AttestationRequest",
          "name": "request",
          "type": "tuple"
        }
      ],
      "name": "addStamp",
      "outputs": [
        {
          "internalType": "bytes32",
          "name": "",
          "type": "bytes32"
        }
      ],
      "stateMutability": "payable",
      "type": "function"
    },
    {
      "inputs": [],
      "name": "eip712Domain",
      "outputs": [
        {
          "internalType": "bytes1",
          "name": "fields",
          "type": "bytes1"
        },
        {
          "internalType": "string",
          "name": "name",
          "type": "string"
        },
        {
          "internalType": "string",
          "name": "version",
          "type": "string"
        },
        {
          "internalType": "uint256",
          "name": "chainId",
          "type": "uint256"
        },
        {
          "internalType": "address",
          "name": "verifyingContract",
          "type": "address"
        },
        {
          "internalType": "bytes32",
          "name": "salt",
          "type": "bytes32"
        },
        {
          "internalType": "uint256[]",
          "name": "extensions",
          "type": "uint256[]"
        }
      ],
      "stateMutability": "view",
      "type": "function"
    },
    {
      "inputs": [
        {
          "internalType": "bytes",
          "name": "input",
          "type": "bytes"
        }
      ],
      "name": "getKeccakStuff",
      "outputs": [
        {
          "internalType": "bytes32",
          "name": "",
          "type": "bytes32"
        }
      ],
      "stateMutability": "view",
      "type": "function"
    },
    {
      "inputs": [],
      "name": "owner",
      "outputs": [
        {
          "internalType": "address",
          "name": "",
          "type": "address"
        }
      ],
      "stateMutability": "view",
      "type": "function"
    },
    {
      "inputs": [],
      "name": "renounceOwnership",
      "outputs": [],
      "stateMutability": "nonpayable",
      "type": "function"
    },
    {
      "inputs": [
        {
          "components": [
            {
              "internalType": "bytes32",
              "name": "schema",
              "type": "bytes32"
            },
            {
              "components": [
                {
                  "internalType": "address",
                  "name": "recipient",
                  "type": "address"
                },
                {
                  "internalType": "uint64",
                  "name": "expirationTime",
                  "type": "uint64"
                },
                {
                  "internalType": "bool",
                  "name": "revocable",
                  "type": "bool"
                },
                {
                  "internalType": "bytes32",
                  "name": "refUID",
                  "type": "bytes32"
                },
                {
                  "internalType": "bytes",
                  "name": "data",
                  "type": "bytes"
                },
                {
                  "internalType": "uint256",
                  "name": "value",
                  "type": "uint256"
                }
              ],
              "internalType": "struct AttestationRequestData",
              "name": "data",
              "type": "tuple"
            },
            {
              "components": [
                {
                  "internalType": "uint8",
                  "name": "v",
                  "type": "uint8"
                },
                {
                  "internalType": "bytes32",
                  "name": "r",
                  "type": "bytes32"
                },
                {
                  "internalType": "bytes32",
                  "name": "s",
                  "type": "bytes32"
                }
              ],
              "internalType": "struct EIP712Signature",
              "name": "signature",
              "type": "tuple"
            },
            {
              "internalType": "address",
              "name": "attester",
              "type": "address"
            }
          ],
          "internalType": "struct DelegatedAttestationRequest",
          "name": "delegatedRequest",
          "type": "tuple"
        }
      ],
      "name": "stamp",
      "outputs": [
        {
          "internalType": "bytes32",
          "name": "",
          "type": "bytes32"
        }
      ],
      "stateMutability": "payable",
      "type": "function"
    },
    {
      "inputs": [
        {
          "internalType": "address",
          "name": "newOwner",
          "type": "address"
        }
      ],
      "name": "transferOwnership",
      "outputs": [],
      "stateMutability": "nonpayable",
      "type": "function"
    }
  ],
  "bytecode": "0x6101c06040523480156200001257600080fd5b5060405162002d6a38038062002d6a83398181016040528101906200003891906200059f565b838381816200005c620000506200016060201b60201c565b6200016860201b60201c565b620000726001836200022c60201b90919060201c565b6101208181525050620000906002826200022c60201b90919060201c565b6101408181525050818051906020012060e08181525050808051906020012061010081815250504660a08181525050620000cf6200028460201b60201c565b608081815250503073ffffffffffffffffffffffffffffffffffffffff1660c08173ffffffffffffffffffffffffffffffffffffffff1681525050505050508473ffffffffffffffffffffffffffffffffffffffff166101608173ffffffffffffffffffffffffffffffffffffffff1681525050816101808181525050806101a08181525050505050505062000b3f565b600033905090565b60008060009054906101000a900473ffffffffffffffffffffffffffffffffffffffff169050816000806101000a81548173ffffffffffffffffffffffffffffffffffffffff021916908373ffffffffffffffffffffffffffffffffffffffff1602179055508173ffffffffffffffffffffffffffffffffffffffff168173ffffffffffffffffffffffffffffffffffffffff167f8be0079c531659141344cd1fd0a4f28419497f9722a3daafe3b4186f6b6457e060405160405180910390a35050565b600060208351101562000252576200024a83620002e160201b60201c565b90506200027e565b8262000264836200034e60201b60201c565b6000019081620002759190620008b0565b5060ff60001b90505b92915050565b60007f8b73c3c69bb8fe3d512ecc4cf759cc79239f7b179b0ffacaa9a75d522b39400f60e051610100514630604051602001620002c6959493929190620009ca565b60405160208183030381529060405280519060200120905090565b600080829050601f815111156200033157826040517f305a27a900000000000000000000000000000000000000000000000000000000815260040162000328919062000a79565b60405180910390fd5b8051816200033f9062000acf565b60001c1760001b915050919050565b6000819050919050565b6000604051905090565b600080fd5b600080fd5b600073ffffffffffffffffffffffffffffffffffffffff82169050919050565b600062000399826200036c565b9050919050565b6000620003ad826200038c565b9050919050565b620003bf81620003a0565b8114620003cb57600080fd5b50565b600081519050620003df81620003b4565b92915050565b600080fd5b600080fd5b6000601f19601f8301169050919050565b7f4e487b7100000000000000000000000000000000000000000000000000000000600052604160045260246000fd5b6200043a82620003ef565b810181811067ffffffffffffffff821117156200045c576200045b62000400565b5b80604052505050565b60006200047162000358565b90506200047f82826200042f565b919050565b600067ffffffffffffffff821115620004a257620004a162000400565b5b620004ad82620003ef565b9050602081019050919050565b60005b83811015620004da578082015181840152602081019050620004bd565b60008484015250505050565b6000620004fd620004f78462000484565b62000465565b9050828152602081018484840111156200051c576200051b620003ea565b5b62000529848285620004ba565b509392505050565b600082601f830112620005495762000548620003e5565b5b81516200055b848260208601620004e6565b91505092915050565b6000819050919050565b620005798162000564565b81146200058557600080fd5b50565b60008151905062000599816200056e565b92915050565b600080600080600060a08688031215620005be57620005bd62000362565b5b6000620005ce88828901620003ce565b955050602086015167ffffffffffffffff811115620005f257620005f162000367565b5b620006008882890162000531565b945050604086015167ffffffffffffffff81111562000624576200062362000367565b5b620006328882890162000531565b9350506060620006458882890162000588565b9250506080620006588882890162000588565b9150509295509295909350565b600081519050919050565b7f4e487b7100000000000000000000000000000000000000000000000000000000600052602260045260246000fd5b60006002820490506001821680620006b857607f821691505b602082108103620006ce57620006cd62000670565b5b50919050565b60008190508160005260206000209050919050565b60006020601f8301049050919050565b600082821b905092915050565b600060088302620007387fffffffffffffffffffffffffffffffffffffffffffffffffffffffffffffffff82620006f9565b620007448683620006f9565b95508019841693508086168417925050509392505050565b6000819050919050565b6000819050919050565b6000620007916200078b62000785846200075c565b62000766565b6200075c565b9050919050565b6000819050919050565b620007ad8362000770565b620007c5620007bc8262000798565b84845462000706565b825550505050565b600090565b620007dc620007cd565b620007e9818484620007a2565b505050565b5b81811015620008115762000805600082620007d2565b600181019050620007ef565b5050565b601f82111562000860576200082a81620006d4565b6200083584620006e9565b8101602085101562000845578190505b6200085d6200085485620006e9565b830182620007ee565b50505b505050565b600082821c905092915050565b6000620008856000198460080262000865565b1980831691505092915050565b6000620008a0838362000872565b9150826002028217905092915050565b620008bb8262000665565b67ffffffffffffffff811115620008d757620008d662000400565b5b620008e382546200069f565b620008f082828562000815565b600060209050601f83116001811462000928576000841562000913578287015190505b6200091f858262000892565b8655506200098f565b601f1984166200093886620006d4565b60005b8281101562000962578489015182556001820191506020850194506020810190506200093b565b868310156200098257848901516200097e601f89168262000872565b8355505b6001600288020188555050505b505050505050565b620009a28162000564565b82525050565b620009b3816200075c565b82525050565b620009c4816200038c565b82525050565b600060a082019050620009e1600083018862000997565b620009f0602083018762000997565b620009ff604083018662000997565b62000a0e6060830185620009a8565b62000a1d6080830184620009b9565b9695505050505050565b600082825260208201905092915050565b600062000a458262000665565b62000a51818562000a27565b935062000a63818560208601620004ba565b62000a6e81620003ef565b840191505092915050565b6000602082019050818103600083015262000a95818462000a38565b905092915050565b600081519050919050565b6000819050602082019050919050565b600062000ac6825162000564565b80915050919050565b600062000adc8262000a9d565b8262000ae88462000aa8565b905062000af58162000ab8565b9250602082101562000b385762000b337fffffffffffffffffffffffffffffffffffffffffffffffffffffffffffffffff83602003600802620006f9565b831692505b5050919050565b60805160a05160c05160e05161010051610120516101405161016051610180516101a0516121a162000bc9600039600081816102c5015261040b015260006101ba01526000818161022001526103c40152600061050c015260006104d801526000610e1201526000610df101526000610a4001526000610a9601526000610abf01526121a16000f3fe6080604052600436106100705760003560e01c806384b0196e1161004e57806384b0196e146100ec5780638da5cb5b1461011d578063a4097b5414610148578063f2fde38b1461018557610070565b80632739e209146100755780635c4c6e6f146100a5578063715018a6146100d5575b600080fd5b61008f600480360381019061008a9190610e9a565b6101ae565b60405161009c9190610efc565b60405180910390f35b6100bf60048036038101906100ba9190610f36565b6102c1565b6040516100cc9190610efc565b60405180910390f35b3480156100e157600080fd5b506100ea6104b1565b005b3480156100f857600080fd5b506101016104c5565b6040516101149796959493929190611162565b60405180910390f35b34801561012957600080fd5b506101326105c7565b60405161013f91906111e6565b60405180910390f35b34801561015457600080fd5b5061016f600480360381019061016a9190611266565b6105f0565b60405161017c9190610efc565b60405180910390f35b34801561019157600080fd5b506101ac60048036038101906101a791906112df565b610612565b005b60006101b8610695565b7f000000000000000000000000000000000000000000000000000000000000000082600001351461021e576040517f08c379a00000000000000000000000000000000000000000000000000000000081526004016102159061137e565b60405180910390fd5b7f000000000000000000000000000000000000000000000000000000000000000073ffffffffffffffffffffffffffffffffffffffff1663f17325e7836040518263ffffffff1660e01b8152600401610277919061170c565b6020604051808303816000875af1158015610296573d6000803e3d6000fd5b505050506040513d601f19601f820116820180604052508101906102ba9190611743565b9050919050565b60007f0000000000000000000000000000000000000000000000000000000000000000826000013514610329576040517f08c379a0000000000000000000000000000000000000000000000000000000008152600401610320906117e2565b60405180910390fd5b6103316105c7565b73ffffffffffffffffffffffffffffffffffffffff168260a001602081019061035a91906112df565b73ffffffffffffffffffffffffffffffffffffffff16146103b0576040517f08c379a00000000000000000000000000000000000000000000000000000000081526004016103a79061184e565b60405180910390fd5b6103c2826103bd90611b86565b610713565b7f000000000000000000000000000000000000000000000000000000000000000073ffffffffffffffffffffffffffffffffffffffff1663f17325e760405180604001604052807f0000000000000000000000000000000000000000000000000000000000000000815260200185806020019061043f9190611b9e565b61044890611bc6565b8152506040518263ffffffff1660e01b81526004016104679190611ce3565b6020604051808303816000875af1158015610486573d6000803e3d6000fd5b505050506040513d601f19601f820116820180604052508101906104aa9190611743565b9050919050565b6104b9610695565b6104c36000610807565b565b60006060806000806000606061050560017f00000000000000000000000000000000000000000000000000000000000000006108cb90919063ffffffff16565b61053960027f00000000000000000000000000000000000000000000000000000000000000006108cb90919063ffffffff16565b46306000801b600067ffffffffffffffff81111561055a57610559611873565b5b6040519080825280602002602001820160405280156105885781602001602082028036833780820191505090505b507f0f00000000000000000000000000000000000000000000000000000000000000959493929190965096509650965096509650965090919293949596565b60008060009054906101000a900473ffffffffffffffffffffffffffffffffffffffff16905090565b60008282604051610602929190611d35565b6040518091039020905092915050565b61061a610695565b600073ffffffffffffffffffffffffffffffffffffffff168173ffffffffffffffffffffffffffffffffffffffff1603610689576040517f08c379a000000000000000000000000000000000000000000000000000000000815260040161068090611dc0565b60405180910390fd5b61069281610807565b50565b61069d61097b565b73ffffffffffffffffffffffffffffffffffffffff166106bb6105c7565b73ffffffffffffffffffffffffffffffffffffffff1614610711576040517f08c379a000000000000000000000000000000000000000000000000000000000815260040161070890611e2c565b60405180910390fd5b565b600081602001519050600082604001519050600061077f8460000151846000015185602001518660400151876060015188608001518051906020012060405160200161076496959493929190611e6a565b60405160208183030381529060405280519060200120610983565b9050836060015173ffffffffffffffffffffffffffffffffffffffff166107b48284600001518560200151866040015161099d565b73ffffffffffffffffffffffffffffffffffffffff1614610801576040517f8baa579f00000000000000000000000000000000000000000000000000000000815260040160405180910390fd5b50505050565b60008060009054906101000a900473ffffffffffffffffffffffffffffffffffffffff169050816000806101000a81548173ffffffffffffffffffffffffffffffffffffffff021916908373ffffffffffffffffffffffffffffffffffffffff1602179055508173ffffffffffffffffffffffffffffffffffffffff168173ffffffffffffffffffffffffffffffffffffffff167f8be0079c531659141344cd1fd0a4f28419497f9722a3daafe3b4186f6b6457e060405160405180910390a35050565b606060ff60001b83146108e8576108e1836109c8565b9050610975565b8180546108f490611efa565b80601f016020809104026020016040519081016040528092919081815260200182805461092090611efa565b801561096d5780601f106109425761010080835404028352916020019161096d565b820191906000526020600020905b81548152906001019060200180831161095057829003601f168201915b505050505090505b92915050565b600033905090565b6000610996610990610a3c565b83610af3565b9050919050565b60008060006109ae87878787610b34565b915091506109bb81610c16565b8192505050949350505050565b606060006109d583610d7c565b90506000602067ffffffffffffffff8111156109f4576109f3611873565b5b6040519080825280601f01601f191660200182016040528015610a265781602001600182028036833780820191505090505b5090508181528360208201528092505050919050565b60007f000000000000000000000000000000000000000000000000000000000000000073ffffffffffffffffffffffffffffffffffffffff163073ffffffffffffffffffffffffffffffffffffffff16148015610ab857507f000000000000000000000000000000000000000000000000000000000000000046145b15610ae5577f00000000000000000000000000000000000000000000000000000000000000009050610af0565b610aed610dcc565b90505b90565b60006040517f190100000000000000000000000000000000000000000000000000000000000081528360028201528260228201526042812091505092915050565b6000807f7fffffffffffffffffffffffffffffff5d576e7357a4501ddfe92f46681b20a08360001c1115610b6f576000600391509150610c0d565b600060018787878760405160008152602001604052604051610b949493929190611f3a565b6020604051602081039080840390855afa158015610bb6573d6000803e3d6000fd5b505050602060405103519050600073ffffffffffffffffffffffffffffffffffffffff168173ffffffffffffffffffffffffffffffffffffffff1603610c0457600060019250925050610c0d565b80600092509250505b94509492505050565b60006004811115610c2a57610c29611f7f565b5b816004811115610c3d57610c3c611f7f565b5b0315610d795760016004811115610c5757610c56611f7f565b5b816004811115610c6a57610c69611f7f565b5b03610caa576040517f08c379a0000000000000000000000000000000000000000000000000000000008152600401610ca190611ffa565b60405180910390fd5b60026004811115610cbe57610cbd611f7f565b5b816004811115610cd157610cd0611f7f565b5b03610d11576040517f08c379a0000000000000000000000000000000000000000000000000000000008152600401610d0890612066565b60405180910390fd5b60036004811115610d2557610d24611f7f565b5b816004811115610d3857610d37611f7f565b5b03610d78576040517f08c379a0000000000000000000000000000000000000000000000000000000008152600401610d6f906120f8565b60405180910390fd5b5b50565b60008060ff8360001c169050601f811115610dc3576040517fb3512b0c00000000000000000000000000000000000000000000000000000000815260040160405180910390fd5b80915050919050565b60007f8b73c3c69bb8fe3d512ecc4cf759cc79239f7b179b0ffacaa9a75d522b39400f7f00000000000000000000000000000000000000000000000000000000000000007f00000000000000000000000000000000000000000000000000000000000000004630604051602001610e47959493929190612118565b60405160208183030381529060405280519060200120905090565b6000604051905090565b600080fd5b600080fd5b600080fd5b600060408284031215610e9157610e90610e76565b5b81905092915050565b600060208284031215610eb057610eaf610e6c565b5b600082013567ffffffffffffffff811115610ece57610ecd610e71565b5b610eda84828501610e7b565b91505092915050565b6000819050919050565b610ef681610ee3565b82525050565b6000602082019050610f116000830184610eed565b92915050565b600060c08284031215610f2d57610f2c610e76565b5b81905092915050565b600060208284031215610f4c57610f4b610e6c565b5b600082013567ffffffffffffffff811115610f6a57610f69610e71565b5b610f7684828501610f17565b91505092915050565b60007fff0000000000000000000000000000000000000000000000000000000000000082169050919050565b610fb481610f7f565b82525050565b600081519050919050565b600082825260208201905092915050565b60005b83811015610ff4578082015181840152602081019050610fd9565b60008484015250505050565b6000601f19601f8301169050919050565b600061101c82610fba565b6110268185610fc5565b9350611036818560208601610fd6565b61103f81611000565b840191505092915050565b6000819050919050565b61105d8161104a565b82525050565b600073ffffffffffffffffffffffffffffffffffffffff82169050919050565b600061108e82611063565b9050919050565b61109e81611083565b82525050565b600081519050919050565b600082825260208201905092915050565b6000819050602082019050919050565b6110d98161104a565b82525050565b60006110eb83836110d0565b60208301905092915050565b6000602082019050919050565b600061110f826110a4565b61111981856110af565b9350611124836110c0565b8060005b8381101561115557815161113c88826110df565b9750611147836110f7565b925050600181019050611128565b5085935050505092915050565b600060e082019050611177600083018a610fab565b81810360208301526111898189611011565b9050818103604083015261119d8188611011565b90506111ac6060830187611054565b6111b96080830186611095565b6111c660a0830185610eed565b81810360c08301526111d88184611104565b905098975050505050505050565b60006020820190506111fb6000830184611095565b92915050565b600080fd5b600080fd5b600080fd5b60008083601f84011261122657611225611201565b5b8235905067ffffffffffffffff81111561124357611242611206565b5b60208301915083600182028301111561125f5761125e61120b565b5b9250929050565b6000806020838503121561127d5761127c610e6c565b5b600083013567ffffffffffffffff81111561129b5761129a610e71565b5b6112a785828601611210565b92509250509250929050565b6112bc81611083565b81146112c757600080fd5b50565b6000813590506112d9816112b3565b92915050565b6000602082840312156112f5576112f4610e6c565b5b6000611303848285016112ca565b91505092915050565b7f4974206973206e6f74207468652065787065637465642061646420736368656d60008201527f6121000000000000000000000000000000000000000000000000000000000000602082015250565b6000611368602283610fc5565b91506113738261130c565b604082019050919050565b600060208201905081810360008301526113978161135b565b9050919050565b6113a781610ee3565b81146113b257600080fd5b50565b6000813590506113c48161139e565b92915050565b60006113d960208401846113b5565b905092915050565b6113ea81610ee3565b82525050565b600080fd5b60008235600160c003833603038112611411576114106113f0565b5b82810191505092915050565b600061142c60208401846112ca565b905092915050565b61143d81611083565b82525050565b600067ffffffffffffffff82169050919050565b61146081611443565b811461146b57600080fd5b50565b60008135905061147d81611457565b92915050565b6000611492602084018461146e565b905092915050565b6114a381611443565b82525050565b60008115159050919050565b6114be816114a9565b81146114c957600080fd5b50565b6000813590506114db816114b5565b92915050565b60006114f060208401846114cc565b905092915050565b611501816114a9565b82525050565b600080fd5b600080fd5b6000808335600160200384360303811261152e5761152d6113f0565b5b83810192508235915060208301925067ffffffffffffffff82111561155657611555611507565b5b60018202360383131561156c5761156b61150c565b5b509250929050565b600082825260208201905092915050565b82818337600083830152505050565b60006115a08385611574565b93506115ad838584611585565b6115b683611000565b840190509392505050565b6115ca8161104a565b81146115d557600080fd5b50565b6000813590506115e7816115c1565b92915050565b60006115fc60208401846115d8565b905092915050565b600060c08301611617600084018461141d565b6116246000860182611434565b506116326020840184611483565b61163f602086018261149a565b5061164d60408401846114e1565b61165a60408601826114f8565b5061166860608401846113ca565b61167560608601826113e1565b506116836080840184611511565b8583036080870152611696838284611594565b925050506116a760a08401846115ed565b6116b460a08601826110d0565b508091505092915050565b6000604083016116d260008401846113ca565b6116df60008601826113e1565b506116ed60208401846113f5565b84820360208601526116ff8282611604565b9150508091505092915050565b6000602082019050818103600083015261172681846116bf565b905092915050565b60008151905061173d8161139e565b92915050565b60006020828403121561175957611758610e6c565b5b60006117678482850161172e565b91505092915050565b7f4974206973206e6f7420746865206578706563746564207374616d702073636860008201527f656d612100000000000000000000000000000000000000000000000000000000602082015250565b60006117cc602483610fc5565b91506117d782611770565b604082019050919050565b600060208201905081810360008301526117fb816117bf565b9050919050565b7f546865206174746573746572206973206e6f7420746865206f776e6572210000600082015250565b6000611838601e83610fc5565b915061184382611802565b602082019050919050565b600060208201905081810360008301526118678161182b565b9050919050565b600080fd5b7f4e487b7100000000000000000000000000000000000000000000000000000000600052604160045260246000fd5b6118ab82611000565b810181811067ffffffffffffffff821117156118ca576118c9611873565b5b80604052505050565b60006118dd610e62565b90506118e982826118a2565b919050565b600080fd5b600080fd5b600067ffffffffffffffff82111561191357611912611873565b5b61191c82611000565b9050602081019050919050565b600061193c611937846118f8565b6118d3565b905082815260208101848484011115611958576119576118f3565b5b611963848285611585565b509392505050565b600082601f8301126119805761197f611201565b5b8135611990848260208601611929565b91505092915050565b600060c082840312156119af576119ae61186e565b5b6119b960c06118d3565b905060006119c9848285016112ca565b60008301525060206119dd8482850161146e565b60208301525060406119f1848285016114cc565b6040830152506060611a05848285016113b5565b606083015250608082013567ffffffffffffffff811115611a2957611a286118ee565b5b611a358482850161196b565b60808301525060a0611a49848285016115d8565b60a08301525092915050565b600060ff82169050919050565b611a6b81611a55565b8114611a7657600080fd5b50565b600081359050611a8881611a62565b92915050565b600060608284031215611aa457611aa361186e565b5b611aae60606118d3565b90506000611abe84828501611a79565b6000830152506020611ad2848285016113b5565b6020830152506040611ae6848285016113b5565b60408301525092915050565b600060c08284031215611b0857611b0761186e565b5b611b1260806118d3565b90506000611b22848285016113b5565b600083015250602082013567ffffffffffffffff811115611b4657611b456118ee565b5b611b5284828501611999565b6020830152506040611b6684828501611a8e565b60408301525060a0611b7a848285016112ca565b60608301525092915050565b6000611b923683611af2565b9050919050565b600080fd5b60008235600160c003833603038112611bba57611bb9611b99565b5b80830191505092915050565b6000611bd23683611999565b9050919050565b600081519050919050565b6000611bef82611bd9565b611bf98185611574565b9350611c09818560208601610fd6565b611c1281611000565b840191505092915050565b600060c083016000830151611c356000860182611434565b506020830151611c48602086018261149a565b506040830151611c5b60408601826114f8565b506060830151611c6e60608601826113e1565b5060808301518482036080860152611c868282611be4565b91505060a0830151611c9b60a08601826110d0565b508091505092915050565b6000604083016000830151611cbe60008601826113e1565b5060208301518482036020860152611cd68282611c1d565b9150508091505092915050565b60006020820190508181036000830152611cfd8184611ca6565b905092915050565b600081905092915050565b6000611d1c8385611d05565b9350611d29838584611585565b82840190509392505050565b6000611d42828486611d10565b91508190509392505050565b7f4f776e61626c653a206e6577206f776e657220697320746865207a65726f206160008201527f6464726573730000000000000000000000000000000000000000000000000000602082015250565b6000611daa602683610fc5565b9150611db582611d4e565b604082019050919050565b60006020820190508181036000830152611dd981611d9d565b9050919050565b7f4f776e61626c653a2063616c6c6572206973206e6f7420746865206f776e6572600082015250565b6000611e16602083610fc5565b9150611e2182611de0565b602082019050919050565b60006020820190508181036000830152611e4581611e09565b9050919050565b611e5581611443565b82525050565b611e64816114a9565b82525050565b600060c082019050611e7f6000830189610eed565b611e8c6020830188611095565b611e996040830187611e4c565b611ea66060830186611e5b565b611eb36080830185610eed565b611ec060a0830184610eed565b979650505050505050565b7f4e487b7100000000000000000000000000000000000000000000000000000000600052602260045260246000fd5b60006002820490506001821680611f1257607f821691505b602082108103611f2557611f24611ecb565b5b50919050565b611f3481611a55565b82525050565b6000608082019050611f4f6000830187610eed565b611f5c6020830186611f2b565b611f696040830185610eed565b611f766060830184610eed565b95945050505050565b7f4e487b7100000000000000000000000000000000000000000000000000000000600052602160045260246000fd5b7f45434453413a20696e76616c6964207369676e61747572650000000000000000600082015250565b6000611fe4601883610fc5565b9150611fef82611fae565b602082019050919050565b6000602082019050818103600083015261201381611fd7565b9050919050565b7f45434453413a20696e76616c6964207369676e6174757265206c656e67746800600082015250565b6000612050601f83610fc5565b915061205b8261201a565b602082019050919050565b6000602082019050818103600083015261207f81612043565b9050919050565b7f45434453413a20696e76616c6964207369676e6174757265202773272076616c60008201527f7565000000000000000000000000000000000000000000000000000000000000602082015250565b60006120e2602283610fc5565b91506120ed82612086565b604082019050919050565b60006020820190508181036000830152612111816120d5565b9050919050565b600060a08201905061212d6000830188610eed565b61213a6020830187610eed565b6121476040830186610eed565b6121546060830185611054565b6121616080830184611095565b969550505050505056fea2646970667358221220ee95d1039adca02d7ed795de95c0b4027882c9b8cdd40a648e3a789bb1d868ed64736f6c63430008130033",
  "linkReferences": {},
  "deployedLinkReferences": {}
}